{
  "_format": "hh-sol-artifact-1",
  "contractName": "EntryPortal",
  "sourceName": "contracts/EntryPortal.sol",
  "abi": [
    {
      "inputs": [],
      "stateMutability": "nonpayable",
      "type": "constructor"
    },
    {
      "anonymous": false,
      "inputs": [
        {
          "indexed": true,
          "internalType": "address",
          "name": "from",
          "type": "address"
        },
        {
          "indexed": false,
          "internalType": "uint256",
          "name": "timestamp",
          "type": "uint256"
        }
      ],
      "name": "NewEntry",
      "type": "event"
    },
    {
      "anonymous": false,
      "inputs": [
        {
          "indexed": true,
          "internalType": "address",
          "name": "oldOwner",
          "type": "address"
        },
        {
          "indexed": true,
          "internalType": "address",
          "name": "newOwner",
          "type": "address"
        }
      ],
      "name": "OwnerSet",
      "type": "event"
    },
    {
      "inputs": [],
      "name": "State",
      "outputs": [
        {
          "internalType": "bool",
          "name": "",
          "type": "bool"
        }
      ],
      "stateMutability": "view",
      "type": "function"
    },
    {
      "inputs": [
        {
          "internalType": "address",
          "name": "newOwner",
          "type": "address"
        }
      ],
      "name": "changeOwner",
      "outputs": [],
      "stateMutability": "nonpayable",
      "type": "function"
    },
    {
      "inputs": [],
      "name": "enter",
      "outputs": [],
      "stateMutability": "nonpayable",
      "type": "function"
    },
    {
      "inputs": [],
      "name": "getHistory",
      "outputs": [
        {
          "components": [
            {
              "internalType": "address",
              "name": "student",
              "type": "address"
            },
            {
              "internalType": "uint256",
              "name": "timestamp",
              "type": "uint256"
            }
          ],
          "internalType": "struct EntryPortal.History[]",
          "name": "",
          "type": "tuple[]"
        }
      ],
      "stateMutability": "view",
      "type": "function"
    },
    {
      "inputs": [],
      "name": "getOwner",
      "outputs": [
        {
          "internalType": "address",
          "name": "",
          "type": "address"
        }
      ],
      "stateMutability": "view",
      "type": "function"
    },
    {
      "inputs": [],
      "name": "getTotalEntries",
      "outputs": [
        {
          "internalType": "uint256",
          "name": "",
          "type": "uint256"
        }
      ],
      "stateMutability": "view",
      "type": "function"
    },
    {
      "inputs": [],
      "name": "state",
      "outputs": [
        {
          "internalType": "bool",
          "name": "",
          "type": "bool"
        }
      ],
      "stateMutability": "view",
      "type": "function"
    },
    {
      "inputs": [],
      "name": "toggle",
      "outputs": [
        {
          "internalType": "bool",
          "name": "",
          "type": "bool"
        }
      ],
      "stateMutability": "nonpayable",
      "type": "function"
    }
  ],
  "bytecode": "0x60806040523480156200001157600080fd5b506200005e6040518060400160405280601b81526020017f4f776e657220636f6e7472616374206465706c6f7965642062793a0000000000815250336200011f60201b6200067f1760201c565b336000806101000a81548173ffffffffffffffffffffffffffffffffffffffff021916908373ffffffffffffffffffffffffffffffffffffffff16021790555060008054906101000a900473ffffffffffffffffffffffffffffffffffffffff1673ffffffffffffffffffffffffffffffffffffffff16600073ffffffffffffffffffffffffffffffffffffffff167f342827c97908e5e2f71151c08502a66d44b6f758e3ac2f1de95f02eb95f0a73560405160405180910390a36200030b565b620001c1828260405160240162000138929190620002d7565b6040516020818303038152906040527f319af333000000000000000000000000000000000000000000000000000000007bffffffffffffffffffffffffffffffffffffffffffffffffffffffff19166020820180517bffffffffffffffffffffffffffffffffffffffffffffffffffffffff8381831617835250505050620001c560201b60201c565b5050565b60008151905060006a636f6e736f6c652e6c6f679050602083016000808483855afa5050505050565b600081519050919050565b600082825260208201905092915050565b60005b838110156200022a5780820151818401526020810190506200020d565b838111156200023a576000848401525b50505050565b6000601f19601f8301169050919050565b60006200025e82620001ee565b6200026a8185620001f9565b93506200027c8185602086016200020a565b620002878162000240565b840191505092915050565b600073ffffffffffffffffffffffffffffffffffffffff82169050919050565b6000620002bf8262000292565b9050919050565b620002d181620002b2565b82525050565b60006040820190508181036000830152620002f3818562000251565b9050620003046020830184620002c6565b9392505050565b610deb806200031b6000396000f3fe608060405234801561001057600080fd5b50600436106100885760003560e01c8063aa15efc81161005b578063aa15efc814610103578063c19d93fb14610121578063e97dcb621461013f578063f1b6dccd1461014957610088565b806312d491c91461008d57806340a3d246146100ab578063893d20e8146100c9578063a6f9dae1146100e7575b600080fd5b610095610167565b6040516100a29190610934565b60405180910390f35b6100b36101b2565b6040516100c0919061096a565b60405180910390f35b6100d1610282565b6040516100de91906109c6565b60405180910390f35b61010160048036038101906100fc9190610a12565b6102ab565b005b61010b6103f6565b6040516101189190610b3b565b60405180910390f35b6101296104b5565b604051610136919061096a565b60405180910390f35b61014761051a565b005b61015161066c565b60405161015e919061096a565b60405180910390f35b60006101aa6040518060400160405280601981526020017f5765206861766520256420746f74616c20656e7472696573210000000000000081525060015461071b565b600154905090565b60008060009054906101000a900473ffffffffffffffffffffffffffffffffffffffff1673ffffffffffffffffffffffffffffffffffffffff163373ffffffffffffffffffffffffffffffffffffffff1614610243576040517f08c379a000000000000000000000000000000000000000000000000000000000815260040161023a90610bba565b60405180910390fd5b600060149054906101000a900460ff1615600060146101000a81548160ff021916908315150217905550600060149054906101000a900460ff16905090565b60008060009054906101000a900473ffffffffffffffffffffffffffffffffffffffff16905090565b60008054906101000a900473ffffffffffffffffffffffffffffffffffffffff1673ffffffffffffffffffffffffffffffffffffffff163373ffffffffffffffffffffffffffffffffffffffff1614610339576040517f08c379a000000000000000000000000000000000000000000000000000000000815260040161033090610bba565b60405180910390fd5b8073ffffffffffffffffffffffffffffffffffffffff1660008054906101000a900473ffffffffffffffffffffffffffffffffffffffff1673ffffffffffffffffffffffffffffffffffffffff167f342827c97908e5e2f71151c08502a66d44b6f758e3ac2f1de95f02eb95f0a73560405160405180910390a3806000806101000a81548173ffffffffffffffffffffffffffffffffffffffff021916908373ffffffffffffffffffffffffffffffffffffffff16021790555050565b60606002805480602002602001604051908101604052809291908181526020016000905b828210156104ac57838290600052602060002090600202016040518060400160405290816000820160009054906101000a900473ffffffffffffffffffffffffffffffffffffffff1673ffffffffffffffffffffffffffffffffffffffff1673ffffffffffffffffffffffffffffffffffffffff1681526020016001820154815250508152602001906001019061041a565b50505050905090565b60006105056040518060400160405280600981526020017f446f6f7220697320250000000000000000000000000000000000000000000000815250600060149054906101000a900460ff166107b7565b600060149054906101000a900460ff16905090565b600180600082825461052c9190610c09565b925050819055506105736040518060400160405280601581526020017f25732068617320656e74657265642061742025732100000000000000000000008152503342610853565b600260405180604001604052803373ffffffffffffffffffffffffffffffffffffffff16815260200142815250908060018154018082558091505060019003906000526020600020906002020160009091909190915060008201518160000160006101000a81548173ffffffffffffffffffffffffffffffffffffffff021916908373ffffffffffffffffffffffffffffffffffffffff1602179055506020820151816001015550503373ffffffffffffffffffffffffffffffffffffffff167f9d5cf8d6fc62210bab9630b8d613c1b63d9cfe0e0d2d70dda538d69c7e4f37ba426040516106629190610934565b60405180910390a2565b600060149054906101000a900460ff1681565b6107178282604051602401610695929190610ce7565b6040516020818303038152906040527f319af333000000000000000000000000000000000000000000000000000000007bffffffffffffffffffffffffffffffffffffffffffffffffffffffff19166020820180517bffffffffffffffffffffffffffffffffffffffffffffffffffffffff83818316178352505050506108f2565b5050565b6107b38282604051602401610731929190610d17565b6040516020818303038152906040527f9710a9d0000000000000000000000000000000000000000000000000000000007bffffffffffffffffffffffffffffffffffffffffffffffffffffffff19166020820180517bffffffffffffffffffffffffffffffffffffffffffffffffffffffff83818316178352505050506108f2565b5050565b61084f82826040516024016107cd929190610d47565b6040516020818303038152906040527fc3b55635000000000000000000000000000000000000000000000000000000007bffffffffffffffffffffffffffffffffffffffffffffffffffffffff19166020820180517bffffffffffffffffffffffffffffffffffffffffffffffffffffffff83818316178352505050506108f2565b5050565b6108ed83838360405160240161086b93929190610d77565b6040516020818303038152906040527f07c81217000000000000000000000000000000000000000000000000000000007bffffffffffffffffffffffffffffffffffffffffffffffffffffffff19166020820180517bffffffffffffffffffffffffffffffffffffffffffffffffffffffff83818316178352505050506108f2565b505050565b60008151905060006a636f6e736f6c652e6c6f679050602083016000808483855afa5050505050565b6000819050919050565b61092e8161091b565b82525050565b60006020820190506109496000830184610925565b92915050565b60008115159050919050565b6109648161094f565b82525050565b600060208201905061097f600083018461095b565b92915050565b600073ffffffffffffffffffffffffffffffffffffffff82169050919050565b60006109b082610985565b9050919050565b6109c0816109a5565b82525050565b60006020820190506109db60008301846109b7565b92915050565b600080fd5b6109ef816109a5565b81146109fa57600080fd5b50565b600081359050610a0c816109e6565b92915050565b600060208284031215610a2857610a276109e1565b5b6000610a36848285016109fd565b91505092915050565b600081519050919050565b600082825260208201905092915050565b6000819050602082019050919050565b610a74816109a5565b82525050565b610a838161091b565b82525050565b604082016000820151610a9f6000850182610a6b565b506020820151610ab26020850182610a7a565b50505050565b6000610ac48383610a89565b60408301905092915050565b6000602082019050919050565b6000610ae882610a3f565b610af28185610a4a565b9350610afd83610a5b565b8060005b83811015610b2e578151610b158882610ab8565b9750610b2083610ad0565b925050600181019050610b01565b5085935050505092915050565b60006020820190508181036000830152610b558184610add565b905092915050565b600082825260208201905092915050565b7f43616c6c6572206973206e6f74206f776e657200000000000000000000000000600082015250565b6000610ba4601383610b5d565b9150610baf82610b6e565b602082019050919050565b60006020820190508181036000830152610bd381610b97565b9050919050565b7f4e487b7100000000000000000000000000000000000000000000000000000000600052601160045260246000fd5b6000610c148261091b565b9150610c1f8361091b565b9250827fffffffffffffffffffffffffffffffffffffffffffffffffffffffffffffffff03821115610c5457610c53610bda565b5b828201905092915050565b600081519050919050565b60005b83811015610c88578082015181840152602081019050610c6d565b83811115610c97576000848401525b50505050565b6000601f19601f8301169050919050565b6000610cb982610c5f565b610cc38185610b5d565b9350610cd3818560208601610c6a565b610cdc81610c9d565b840191505092915050565b60006040820190508181036000830152610d018185610cae565b9050610d1060208301846109b7565b9392505050565b60006040820190508181036000830152610d318185610cae565b9050610d406020830184610925565b9392505050565b60006040820190508181036000830152610d618185610cae565b9050610d70602083018461095b565b9392505050565b60006060820190508181036000830152610d918186610cae565b9050610da060208301856109b7565b610dad6040830184610925565b94935050505056fea2646970667358221220c3daf9b392f2fbd12158692180d2298dfcff353872454a1dad72600e531174c964736f6c634300080a0033",
  "linkReferences": {},
  "deployedLinkReferences": {}
}